:0400000080312828FB
:100008007E1480314E018F1E0A280B280E2882315B
:10001800492280314E010F1E1228132816288331D9
:10002800962380314E018F1F1A281B281E288131E4
:10003800E32180314E010F1F2228232826288331EF
:10004800B72380317E10090080312A288431C724E3
:100058008031FB008431C8248031FC008431C924FC
:100068008031EE008431CA248031EF00F901FA01B1
:10007800203084000030850042308431B62480313D
:10008800A03084000030850012308431B6248031DD
:100098007E1040018331F72B003407340E340934C5
:1000A8001C341B341234153438343F34363431346C
:1000B800243423342A342D34703477347E3479341C
:1000C8006C346B346234653448344F3446344134CC
:1000D800543453345A345D34E034E734EE34E9347C
:1000E800FC34FB34F234F534D834DF34D634D1342C
:1000F800C434C334CA34CD34903497349E349934DC
:100108008C348B3482348534A834AF34A634A1348B
:10011800B434B334BA34BD34C734C034C934CE343B
:10012800DB34DC34D534D234FF34F834F134F634EB
:10013800E334E434ED34EA34B734B034B934BE349B
:10014800AB34AC34A534A2348F348834813486344B
:10015800933494349D349A342734203429342E34FB
:100168003B343C34353432341F34183411341634AB
:10017800033404340D340A345734503459345E345B
:100188004B344C34453442346F346834613466340B
:10019800733474347D347A3489348E3487348034BB
:1001A800953492349B349C34B134B634BF34B8346B
:1001B800AD34AA34A334A434F934FE34F734F0341B
:1001C800E534E234EB34EC34C134C634CF34C834CB
:1001D800DD34DA34D334D43469346E34673460347B
:1001E800753472347B347C34513456345F3458342B
:1001F8004D344A344334443419341E3417341034DB
:10020800053402340B340C34213426342F3428348A
:100218003D343A34333434344E344934403447343A
:10022800523455345C345B347634713478347F34EA
:100238006A346D34643463343E343934303437349A
:10024800223425342C342B340634013408340F344A
:100258001A341D3414341334AE34A934A034A734FA
:10026800B234B534BC34BB349634913498349F34AA
:100278008A348D3484348334DE34D934D034D7345A
:10028800C234C534CC34CB34E634E134E834EF340A
:10029800FA34FD34F434F334400151080F39E800DE
:1002A8006808EC005108F039103EE8006808EB00D7
:1002B8005008031D60296129782902306C06031D46
:1002C8006629672978295208E800E9016808A20028
:1002D8006908A3005308E800E9016808E900E80193
:1002E8006808A2046908A30428305006031D7D2964
:1002F8007E29E22902306C06031D83298429AC2952
:100308005203031D88298929AC298030E800680830
:10031800BE006B080238E8006808BF001430E80027
:100328006808C0002830E8006808C1000430E80008
:100338006808E2003E308331412381314001E90001
:100348006908C2000530E8006808A800AA01AA0ADE
:100358006C03031DB029B129E22920305206031D80
:10036800B629B729E2298030E8006808BE006B0882
:100378000338E8006808BF002930E8006808C000B2
:100388006E08E8006808C1006F08E8006808C20045
:100398000030EE001030EF000530E8006808E20099
:1003A8003E308331412381314001E9006908C300AF
:1003B8000630E8006808A800AA01AA0A0800432A2B
:1003C800400126080319E929EA29ED2954011908E9
:1003D800432A54011908F5007508F70055307706C7
:1003E800031DF729F829002A7B0A031DFC29FD298A
:1003F800002AFB01F901E329FB1B032A042AE3294C
:100408007708F5007B08A03E860087017508810003
:100418000130F5007508FB0702307B06031D152A1D
:10042800162A252A1030770203181B2A1C2A222A8A
:100438007708033EF5007508F900E329FB01FB0383
:10044800E3297B08F500F601F51BF6037908750624
:100458007604031D302A312AE3297908FF3EF50086
:100468007508F000A0308431332481317706031DEC
:100478003E2A3F2A222A4001A601A60A222A4E0124
:100488008F1B472A482AE42908009C2A40012B0888
:1004980003194F2A502A532A420119089C2A42015B
:1004A8001D1D572A582A5C2A1908FC01FA01492AF5
:1004B800FC1B5F2A602A492A1908F6007608F8000A
:1004C8007808F6007C08503E86008701760881008F
:1004D8000130F6007608FC0702307C06031D752AF9
:1004E800762A7D2A78080F39033EF6007608FA0046
:1004F800492A7C08F600F701F61BF7037A08760606
:100508007704031D882A892A492A7A08F60076087A
:10051800F000503083316C238231003A031D952A54
:10052800962A992A4001AB01AB0AFC01FC03492A2F
:100538004E018F1AA02AA12A4A2A080040012B0836
:100548000319A72AA82AB12A8131502182314001F2
:10055800AB010330ED006D08A7002A080319B52A7E
:10056800B62AC32A2708031DBA2ABB2AC32A8431FC
:10057800A82482318431872482314001AA012908C4
:100588002806031DC82AC92AD82A42019E1CCD2A3A
:10059800CE2AD82A9E1ED12AD22AD82A8431C22409
:1005A80082318431AF248231400127080319DD2AC2
:1005B800DE2AE02A0130A70208004001E400FB2AF5
:1005C800EE01EF01142B0130EE001030EF00142B78
:1005D8000230EE001030EF00142B1030EE00103017
:1005E800EF00142B0830EE001030EF00142B6408D5
:1005F800E200E3016308003A0319032B142B620895
:10060800003A0319E42A013A0319E72A033A0319BD
:10061800EC2A013A0319F12A073A0319F62A142B8E
:1006280008008431BC24833140016308EA00620871
:10063800E900AC010230E7006708AD006908E7008F
:100648006708AE006A08E7006708AF000430E700F3
:100658006708E2002C308331D82383314001E80059
:100668006808B0000530E7006708A400A501553008
:1006780054019A004E01191708004001E600F330B2
:10068800E3006308E700E501642B6608860087013C
:1006980001086706E3006308E4000130E30063082B
:1006A800E6076408503E840080300318013E850048
:1006B8000008E3006308E7000130E3006308E5078A
:1006C80062086502031C692B6A2B492B670808001E
:1006D800F400F330F1007108F500F3018E2B740873
:1006E8008600870101087506F1007108F2000130E3
:1006F800F1007108F4077208503E84008030031836
:10070800013E85000008F1007108F5000130F10094
:100718007108F30770087302031C932B942B732B37
:1007280075080800AD2B40012808290203189D2BE5
:100738009E2BAB2B29083E3E86008701010842010B
:100748009A000130F00070084001A907AD2B4E0156
:1007580019124E010F1EB12BB22BB62B191AB52B3D
:10076800B62B972B0800CE2B40012408250203182E
:10077800BE2BBF2BCC2B25082C3E860087010108F9
:1007880054019A000130F00070084001A507CE2BF3
:100798004E0119134E010F1FD22BD32BD72B191B28
:1007A800D62BD72BB82B08004001E6005530E300C4
:1007B8006308E500E401EF2B66088600870101085D
:1007C800E3006308E5070130E3006308E60701304A
:1007D800E3006308E40762086402031CF42BF52BAA
:1007E800E02B6508080084315124833184319F242B
:1007F800833184319324833184317A2483310B17F4
:100808008B174E018C1E092C0A2C052C8C126400A7
:100818008231A2228331843115248331052C803121
:1008280028284001260803191A2C1B2C202C843157
:100838006A2484314001A6010130A0070030A13D9F
:1008480088302006133003192106031D2C2C2D2C6B
:10085800322CA001A1018331152384310800F40052
:100868005530F1007108F300F201492C7408860034
:1008780087010108F1007108F3070130F1007108E0
:10088800F4070130F1007108F20770087202031CC6
:100898004E2C4F2C3A2C7308080040019801083060
:1008A80092007E01B801113040019A002230940074
:1008B8007E01CE010F30A40015307D01CB00113030
:1008C8007E01A00011307D01CD0008004101200308
:1008D800031D6F2C702C792C2103031D742C752C8F
:1008E800792C22088231E122843108000130540138
:1008F8009C00A0309B009F151E159D171D169E1667
:100908004E019917080040011A1542019E16400130
:10091800A90142019E159A014E01191608000130DD
:1009280042019C00A0309B009F151E159D17843125
:10093800AF24843108004B019C017C309D00783045
:100948009F0080309E00080040019A1542011D1248
:100958004E019912080040019A1142011D164E01DC
:1009680099160800640080010131890BB72C003406
:1009780040012308E3002208E200080040011A11A0
:0E09880042019E120800FF34FF340034103488
:020000040001F9
:08000000FF3FFF3FFF3FFF3F00
:0A000E008C3FFF3FEA06FF3FFF3F73
:00000001FF
